{
  "contractName": "Authority",
  "abi": [
    {
      "constant": true,
      "inputs": [],
      "name": "government",
      "outputs": [
        {
          "name": "",
          "type": "address"
        }
      ],
      "payable": false,
      "stateMutability": "view",
      "type": "function"
    }
  ],
  "bytecode": "0x608060405234801561001057600080fd5b5060c68061001f6000396000f3fe608060405260043610603e5763ffffffff7c01000000000000000000000000000000000000000000000000000000006000350416632672f52681146043575b600080fd5b348015604e57600080fd5b506055607e565b6040805173ffffffffffffffffffffffffffffffffffffffff9092168252519081900360200190f35b60005473ffffffffffffffffffffffffffffffffffffffff168156fea165627a7a72305820ebb45d4af419c7513ada60ad2e90c41d8086907e43bc23e0a43234bf0aa644890029",
  "source": "pragma solidity ^0.5.0;\r\n\r\ncontract Authority {\r\n    address public government;\r\n\r\n    // constructor(address _government) public {\r\n    //     government = _government;\r\n    // }\r\n\r\n    // function verifyRequest(uint amount) public view returns (bool) {\r\n    //     return Government(government).checkBalance(amount);\r\n    // }\r\n}\r\n\r\n \r\n",
  "sourcePath": "C:/DCP/contracts/Authority.sol",
  "compiler": {
    "name": "solc",
    "version": "0.5.0+commit.1d4f565a.Emscripten.clang"
  },
  "schemaVersion": "3.0.1",
  "updatedAt": "2024-05-07T15:32:23.774Z",
  "devdoc": {
    "methods": {}
  },
  "userdoc": {
    "methods": {}
  }
}