{
  "contractName": "FundManager",
  "abi": [
    {
      "inputs": [
        {
          "internalType": "contract Token",
          "name": "_tokenContract",
          "type": "address"
        }
      ],
      "payable": false,
      "stateMutability": "nonpayable",
      "type": "constructor"
    },
    {
      "anonymous": false,
      "inputs": [
        {
          "indexed": false,
          "internalType": "uint256",
          "name": "fundIndex",
          "type": "uint256"
        }
      ],
      "name": "FundCreated",
      "type": "event"
    },
    {
      "constant": true,
      "inputs": [
        {
          "internalType": "uint256",
          "name": "",
          "type": "uint256"
        }
      ],
      "name": "funds",
      "outputs": [
        {
          "internalType": "uint256",
          "name": "money",
          "type": "uint256"
        },
        {
          "internalType": "string",
          "name": "numberOfBeneficiaries",
          "type": "string"
        },
        {
          "internalType": "string",
          "name": "tag",
          "type": "string"
        },
        {
          "internalType": "address",
          "name": "creator",
          "type": "address"
        }
      ],
      "payable": false,
      "stateMutability": "view",
      "type": "function"
    },
    {
      "constant": true,
      "inputs": [],
      "name": "owner",
      "outputs": [
        {
          "internalType": "address",
          "name": "",
          "type": "address"
        }
      ],
      "payable": false,
      "stateMutability": "view",
      "type": "function"
    },
    {
      "constant": true,
      "inputs": [],
      "name": "tokenContract",
      "outputs": [
        {
          "internalType": "contract Token",
          "name": "",
          "type": "address"
        }
      ],
      "payable": false,
      "stateMutability": "view",
      "type": "function"
    },
    {
      "constant": false,
      "inputs": [
        {
          "internalType": "uint256",
          "name": "_money",
          "type": "uint256"
        },
        {
          "internalType": "string",
          "name": "_numberOfBeneficiaries",
          "type": "string"
        },
        {
          "internalType": "string",
          "name": "_tag",
          "type": "string"
        }
      ],
      "name": "createFund",
      "outputs": [],
      "payable": false,
      "stateMutability": "nonpayable",
      "type": "function"
    },
    {
      "constant": true,
      "inputs": [
        {
          "internalType": "string",
          "name": "_value",
          "type": "string"
        }
      ],
      "name": "parseInt",
      "outputs": [
        {
          "internalType": "uint256",
          "name": "",
          "type": "uint256"
        }
      ],
      "payable": false,
      "stateMutability": "pure",
      "type": "function"
    }
  ],
  "bytecode": "0x6080604052600080546001600160a01b0319163317905534801561002257600080fd5b506040516108ff3803806108ff8339818101604052602081101561004557600080fd5b5051600180546001600160a01b0319166001600160a01b0390921691909117905561088a806100756000396000f3fe608060405234801561001057600080fd5b50600436106100575760003560e01c80632ba19dcc1461005c57806342346c5e1461019257806355a373d61461024a5780637b8e88951461026e5780638da5cb5b14610389575b600080fd5b6101906004803603606081101561007257600080fd5b8135919081019060408101602082013564010000000081111561009457600080fd5b8201836020820111156100a657600080fd5b803590602001918460018302840111640100000000831117156100c857600080fd5b91908080601f016020809104026020016040519081016040528093929190818152602001838380828437600092019190915250929594936020810193503591505064010000000081111561011b57600080fd5b82018360208201111561012d57600080fd5b8035906020019184600183028401116401000000008311171561014f57600080fd5b91908080601f016020809104026020016040519081016040528093929190818152602001838380828437600092019190915250929550610391945050505050565b005b610238600480360360208110156101a857600080fd5b8101906020810181356401000000008111156101c357600080fd5b8201836020820111156101d557600080fd5b803590602001918460018302840111640100000000831117156101f757600080fd5b91908080601f0160208091040260200160405190810160405280939291908181526020018383808284376000920191909152509295506105b0945050505050565b60408051918252519081900360200190f35b610252610601565b604080516001600160a01b039092168252519081900360200190f35b61028b6004803603602081101561028457600080fd5b5035610610565b604051808581526020018060200180602001846001600160a01b03166001600160a01b03168152602001838103835286818151815260200191508051906020019080838360005b838110156102ea5781810151838201526020016102d2565b50505050905090810190601f1680156103175780820380516001836020036101000a031916815260200191505b50838103825285518152855160209182019187019080838360005b8381101561034a578181015183820152602001610332565b50505050905090810190601f1680156103775780820380516001836020036101000a031916815260200191505b50965050505050505060405180910390f35b61025261077a565b600083116103e6576040805162461bcd60e51b815260206004820152601e60248201527f4d6f6e65792073686f756c642062652067726561746572207468616e20300000604482015290519081900360640190fd5b60006103f1836105b0565b90506103fb610789565b50604080516080810182528581526020808201868152928201859052336060830152600280546001810180835560009290925283517f405787fa12a823e0f2b7631cc41b3ba8828b3321ca811111fa75cd3aa3bb5ace600490920291820190815594518051949592948694610494937f405787fa12a823e0f2b7631cc41b3ba8828b3321ca811111fa75cd3aa3bb5acf019201906107ba565b50604082015180516104b09160028401916020909101906107ba565b5060609190910151600390910180546001600160a01b0319166001600160a01b0390921691909117905550600254604080516000199092018252517fec41606da1b7e318a73aa4bf363741fa612f34a0bdc09cf8e6b3417289ad1a51916020908290030190a160005b828110156105a857600083878161052c57fe5b600154604080516335086a6b60e11b8152336004820152939092046024840181905291519193506001600160a01b031691636a10d4d691604480830192600092919082900301818387803b15801561058357600080fd5b505af1158015610597573d6000803e3d6000fd5b505060019093019250610519915050565b505050505050565b60008181805b82518110156105f957600060308483815181106105cf57fe5b016020015160f81c039050600a81106105e857506105f9565b600a909202909101906001016105b6565b509392505050565b6001546001600160a01b031681565b6002818154811061061d57fe5b9060005260206000209060040201600091509050806000015490806001018054600181600116156101000203166002900480601f0160208091040260200160405190810160405280929190818152602001828054600181600116156101000203166002900480156106cf5780601f106106a4576101008083540402835291602001916106cf565b820191906000526020600020905b8154815290600101906020018083116106b257829003601f168201915b50505060028085018054604080516020601f60001961010060018716150201909416959095049283018590048502810185019091528181529596959450909250908301828280156107615780601f1061073657610100808354040283529160200191610761565b820191906000526020600020905b81548152906001019060200180831161074457829003601f168201915b505050600390930154919250506001600160a01b031684565b6000546001600160a01b031681565b604051806080016040528060008152602001606081526020016060815260200160006001600160a01b031681525090565b828054600181600116156101000203166002900490600052602060002090601f016020900481019282601f106107fb57805160ff1916838001178555610828565b82800160010185558215610828579182015b8281111561082857825182559160200191906001019061080d565b50610834929150610838565b5090565b61085291905b80821115610834576000815560010161083e565b9056fea265627a7a72315820ff26772d7d8e675940a98e8ce894e52feec6f25bb1525f79ad1c79793d873aac64736f6c63430005100032",
  "source": "pragma solidity ^0.5.0;\r\n\r\nimport \"./Token.sol\";\r\n\r\ncontract FundManager {\r\n    address public owner = msg.sender;\r\n    Token public tokenContract;\r\n\r\n    struct Fund {\r\n        uint money;\r\n        string numberOfBeneficiaries; // Changed to string\r\n        string tag;\r\n        address creator;\r\n    }\r\n\r\n    Fund[] public funds;\r\n\r\n    event FundCreated(uint fundIndex);\r\n\r\n    constructor(Token _tokenContract) public {\r\n        tokenContract = _tokenContract;\r\n    }\r\n\r\n    function createFund(uint _money, string memory _numberOfBeneficiaries, string memory _tag) public {\r\n        require(_money > 0, \"Money should be greater than 0\");\r\n        \r\n        // Convert string numberOfBeneficiaries to uint\r\n        uint numberOfBeneficiariesInt = parseInt(_numberOfBeneficiaries);\r\n\r\n        // Create new fund\r\n        Fund memory newFund = Fund({\r\n            money: _money,\r\n            numberOfBeneficiaries: _numberOfBeneficiaries,\r\n            tag: _tag,\r\n            creator: msg.sender\r\n        });\r\n        funds.push(newFund);\r\n        emit FundCreated(funds.length - 1);\r\n\r\n        // Automatically create tokens for the fund\r\n        for (uint i = 0; i < numberOfBeneficiariesInt; i++) {\r\n            uint tokenPrice = _money / numberOfBeneficiariesInt;\r\n            tokenContract.createToken(msg.sender, tokenPrice);\r\n        }\r\n    }\r\n\r\n    // Function to convert string to uint\r\n    function parseInt(string memory _value) public pure returns (uint) {\r\n        bytes memory _bytesValue = bytes(_value);\r\n        uint _uintValue = 0;\r\n        for (uint i = 0; i < _bytesValue.length; i++) {\r\n            uint _digit = uint(uint8(_bytesValue[i])) - 48;\r\n            if (_digit >= 10) {\r\n                break;\r\n            }\r\n            _uintValue = _uintValue * 10 + _digit;\r\n        }\r\n        return _uintValue;\r\n    }\r\n}\r\n",
  "sourcePath": "D:\\clg\\sem 6\\digital currency programming\\case study\\Government-Fund-Allocation-Tracking-master\\Government-Fund-Allocation-Tracking-master\\contracts\\Funds.sol",
  "compiler": {
    "name": "solc",
    "version": "0.5.16+commit.9c3226ce.Emscripten.clang"
  },
  "schemaVersion": "3.4.16",
  "updatedAt": "2024-05-08T03:11:44.880Z",
  "devdoc": {
    "methods": {}
  },
  "userdoc": {
    "methods": {}
  }
}