{
  "contractName": "Funds",
  "abi": [
    {
      "anonymous": false,
      "inputs": [
        {
          "indexed": true,
          "internalType": "uint256",
          "name": "fundIndex",
          "type": "uint256"
        },
        {
          "indexed": false,
          "internalType": "uint256",
          "name": "money",
          "type": "uint256"
        },
        {
          "indexed": false,
          "internalType": "string",
          "name": "numberOfBeneficiaries",
          "type": "string"
        },
        {
          "indexed": false,
          "internalType": "string",
          "name": "tag",
          "type": "string"
        },
        {
          "indexed": false,
          "internalType": "address",
          "name": "creator",
          "type": "address"
        }
      ],
      "name": "FundCreated",
      "type": "event"
    },
    {
      "constant": true,
      "inputs": [
        {
          "internalType": "address",
          "name": "",
          "type": "address"
        },
        {
          "internalType": "uint256",
          "name": "",
          "type": "uint256"
        }
      ],
      "name": "creatorToFunds",
      "outputs": [
        {
          "internalType": "uint256",
          "name": "",
          "type": "uint256"
        }
      ],
      "payable": false,
      "stateMutability": "view",
      "type": "function"
    },
    {
      "constant": true,
      "inputs": [
        {
          "internalType": "uint256",
          "name": "",
          "type": "uint256"
        }
      ],
      "name": "funds",
      "outputs": [
        {
          "internalType": "uint256",
          "name": "money",
          "type": "uint256"
        },
        {
          "internalType": "string",
          "name": "numberOfBeneficiaries",
          "type": "string"
        },
        {
          "internalType": "string",
          "name": "tag",
          "type": "string"
        },
        {
          "internalType": "address",
          "name": "creator",
          "type": "address"
        }
      ],
      "payable": false,
      "stateMutability": "view",
      "type": "function"
    },
    {
      "constant": false,
      "inputs": [
        {
          "internalType": "uint256",
          "name": "_money",
          "type": "uint256"
        },
        {
          "internalType": "string",
          "name": "_numberOfBeneficiaries",
          "type": "string"
        },
        {
          "internalType": "string",
          "name": "_tag",
          "type": "string"
        }
      ],
      "name": "createFund",
      "outputs": [],
      "payable": false,
      "stateMutability": "nonpayable",
      "type": "function"
    },
    {
      "constant": true,
      "inputs": [
        {
          "internalType": "address",
          "name": "_creator",
          "type": "address"
        }
      ],
      "name": "getFundsByCreator",
      "outputs": [
        {
          "internalType": "uint256[]",
          "name": "",
          "type": "uint256[]"
        }
      ],
      "payable": false,
      "stateMutability": "view",
      "type": "function"
    }
  ],
  "bytecode": "0x608060405234801561001057600080fd5b5061088e806100206000396000f3fe608060405234801561001057600080fd5b506004361061004c5760003560e01c80632ba19dcc1461005157806367f100d1146101875780637b8e8895146101c5578063fd3539bf146102e0575b600080fd5b6101856004803603606081101561006757600080fd5b8135919081019060408101602082013564010000000081111561008957600080fd5b82018360208201111561009b57600080fd5b803590602001918460018302840111640100000000831117156100bd57600080fd5b91908080601f016020809104026020016040519081016040528093929190818152602001838380828437600092019190915250929594936020810193503591505064010000000081111561011057600080fd5b82018360208201111561012257600080fd5b8035906020019184600183028401116401000000008311171561014457600080fd5b91908080601f016020809104026020016040519081016040528093929190818152602001838380828437600092019190915250929550610356945050505050565b005b6101b36004803603604081101561019d57600080fd5b506001600160a01b038135169060200135610589565b60408051918252519081900360200190f35b6101e2600480360360208110156101db57600080fd5b50356105b7565b604051808581526020018060200180602001846001600160a01b03166001600160a01b03168152602001838103835286818151815260200191508051906020019080838360005b83811015610241578181015183820152602001610229565b50505050905090810190601f16801561026e5780820380516001836020036101000a031916815260200191505b50838103825285518152855160209182019187019080838360005b838110156102a1578181015183820152602001610289565b50505050905090810190601f1680156102ce5780820380516001836020036101000a031916815260200191505b50965050505050505060405180910390f35b610306600480360360208110156102f657600080fd5b50356001600160a01b0316610721565b60408051602080825283518183015283519192839290830191858101910280838360005b8381101561034257818101518382015260200161032a565b505050509050019250505060405180910390f35b61035e61078d565b50604080516080810182528481526020808201858152928201849052336060830152600080546001810180835591805283517f290decd9548b62a8d60345a988386fc84ba6bc95484008f6362f93160ef3e5636004909202918201908155945180519495929486946103f4937f290decd9548b62a8d60345a988386fc84ba6bc95484008f6362f93160ef3e564019201906107be565b50604082015180516104109160028401916020909101906107be565b5060609182015160039190910180546001600160a01b0319166001600160a01b0390921691909117905560008054338083526001602081815260408086208054938401815586528186206000199095019490920184905581518b815295860183905260808682018181528b51918801919091528a5194975087967f7a75eff737991f8f555cf52bc663b5a8a393b53bdaa3b04b6bbe80142965031c968d968d968d9690959394939085019260a086019291890191908190849084905b838110156104e45781810151838201526020016104cc565b50505050905090810190601f1680156105115780820380516001836020036101000a031916815260200191505b50838103825285518152855160209182019187019080838360005b8381101561054457818101518382015260200161052c565b50505050905090810190601f1680156105715780820380516001836020036101000a031916815260200191505b50965050505050505060405180910390a25050505050565b600160205281600052604060002081815481106105a257fe5b90600052602060002001600091509150505481565b600081815481106105c457fe5b9060005260206000209060040201600091509050806000015490806001018054600181600116156101000203166002900480601f0160208091040260200160405190810160405280929190818152602001828054600181600116156101000203166002900480156106765780601f1061064b57610100808354040283529160200191610676565b820191906000526020600020905b81548152906001019060200180831161065957829003601f168201915b50505060028085018054604080516020601f60001961010060018716150201909416959095049283018590048502810185019091528181529596959450909250908301828280156107085780601f106106dd57610100808354040283529160200191610708565b820191906000526020600020905b8154815290600101906020018083116106eb57829003601f168201915b505050600390930154919250506001600160a01b031684565b6001600160a01b03811660009081526001602090815260409182902080548351818402810184019094528084526060939283018282801561078157602002820191906000526020600020905b81548152602001906001019080831161076d575b50505050509050919050565b604051806080016040528060008152602001606081526020016060815260200160006001600160a01b031681525090565b828054600181600116156101000203166002900490600052602060002090601f016020900481019282601f106107ff57805160ff191683800117855561082c565b8280016001018555821561082c579182015b8281111561082c578251825591602001919060010190610811565b5061083892915061083c565b5090565b61085691905b808211156108385760008155600101610842565b9056fea265627a7a7231582022bdd095d5c77e21c93d4bc1a684d877688d9d89e14fe56c5d9703033b3cf2e664736f6c63430005100032",
  "source": "// SPDX-License-Identifier: MIT\r\npragma solidity ^0.5.0;\r\n\r\ncontract Funds {\r\n    struct Fund {\r\n        uint money;\r\n        string numberOfBeneficiaries;\r\n        string tag;\r\n        address creator;\r\n    }\r\n\r\n    Fund[] public funds;\r\n    mapping(address => uint[]) public creatorToFunds;\r\n\r\n    event FundCreated(uint indexed fundIndex, uint money, string numberOfBeneficiaries, string tag, address creator);\r\n\r\n    function createFund(uint _money, string memory _numberOfBeneficiaries, string memory _tag) public {\r\n        Fund memory newFund = Fund(_money, _numberOfBeneficiaries, _tag, msg.sender);\r\n        funds.push(newFund);\r\n        uint fundIndex = funds.length - 1;\r\n        creatorToFunds[msg.sender].push(fundIndex);\r\n        emit FundCreated(fundIndex, _money, _numberOfBeneficiaries, _tag, msg.sender);\r\n    }\r\n\r\n    function getFundsByCreator(address _creator) public view returns (uint[] memory) {\r\n        return creatorToFunds[_creator];\r\n    }\r\n}\r\n",
  "sourcePath": "D:\\clg\\sem 6\\digital currency programming\\case study\\Government-Fund-Allocation-Tracking-master\\Government-Fund-Allocation-Tracking-master\\contracts\\Funds.sol",
  "compiler": {
    "name": "solc",
    "version": "0.5.16+commit.9c3226ce.Emscripten.clang"
  },
  "schemaVersion": "3.4.16",
  "updatedAt": "2024-05-08T03:11:48.132Z",
  "networkType": "ethereum",
  "devdoc": {
    "methods": {}
  },
  "userdoc": {
    "methods": {}
  }
}