{
  "contractName": "TodoList",
  "abi": [
    {
      "constant": true,
      "inputs": [],
      "name": "fundCount",
      "outputs": [
        {
          "name": "",
          "type": "uint256"
        }
      ],
      "payable": false,
      "stateMutability": "view",
      "type": "function",
      "signature": "0x3f936ff5"
    },
    {
      "constant": true,
      "inputs": [
        {
          "name": "",
          "type": "uint256"
        }
      ],
      "name": "funds",
      "outputs": [
        {
          "name": "id",
          "type": "uint256"
        },
        {
          "name": "content",
          "type": "string"
        },
        {
          "name": "tag",
          "type": "uint256"
        },
        {
          "name": "money",
          "type": "uint256"
        }
      ],
      "payable": false,
      "stateMutability": "view",
      "type": "function",
      "signature": "0x7b8e8895"
    },
    {
      "inputs": [],
      "payable": false,
      "stateMutability": "nonpayable",
      "type": "constructor",
      "signature": "constructor"
    },
    {
      "constant": false,
      "inputs": [
        {
          "name": "_content",
          "type": "string"
        },
        {
          "name": "_tag",
          "type": "uint256"
        },
        {
          "name": "_money",
          "type": "uint256"
        }
      ],
      "name": "createFund",
      "outputs": [],
      "payable": false,
      "stateMutability": "nonpayable",
      "type": "function",
      "signature": "0xaef5e714"
    }
  ],
  "bytecode": "0x60806040526000805534801561001457600080fd5b5060408051808201909152601c81527f476f76656e6d656e7420537475646965732046756e64202d3230323400000000602082015261005f906001601e640100000000610064810204565b61016f565b6000805460019081018083556040805160808101825282815260208082018981528284018990526060830188905293865284815291909420845181559151805192936100b8939085019291909101906100d4565b5060408201516002820155606090910151600390910155505050565b828054600181600116156101000203166002900490600052602060002090601f016020900481019282601f1061011557805160ff1916838001178555610142565b82800160010185558215610142579182015b82811115610142578251825591602001919060010190610127565b5061014e929150610152565b5090565b61016c91905b8082111561014e5760008155600101610158565b90565b6103e28061017e6000396000f3fe6080604052600436106100565763ffffffff7c01000000000000000000000000000000000000000000000000000000006000350416633f936ff5811461005b5780637b8e889514610082578063aef5e71414610139575b600080fd5b34801561006757600080fd5b506100706101f3565b60408051918252519081900360200190f35b34801561008e57600080fd5b506100ac600480360360208110156100a557600080fd5b50356101f9565b6040518085815260200180602001848152602001838152602001828103825285818151815260200191508051906020019080838360005b838110156100fb5781810151838201526020016100e3565b50505050905090810190601f1680156101285780820380516001836020036101000a031916815260200191505b509550505050505060405180910390f35b34801561014557600080fd5b506101f16004803603606081101561015c57600080fd5b81019060208101813564010000000081111561017757600080fd5b82018360208201111561018957600080fd5b803590602001918460018302840111640100000000831117156101ab57600080fd5b91908080601f01602080910402602001604051908101604052809392919081815260200183838082843760009201919091525092955050823593505050602001356102ab565b005b60005481565b600160208181526000928352604092839020805481840180548651600296821615610100026000190190911695909504601f810185900485028601850190965285855290949193929091908301828280156102955780601f1061026a57610100808354040283529160200191610295565b820191906000526020600020905b81548152906001019060200180831161027857829003601f168201915b5050505050908060020154908060030154905084565b6000805460019081018083556040805160808101825282815260208082018981528284018990526060830188905293865284815291909420845181559151805192936102ff9390850192919091019061031b565b5060408201516002820155606090910151600390910155505050565b828054600181600116156101000203166002900490600052602060002090601f016020900481019282601f1061035c57805160ff1916838001178555610389565b82800160010185558215610389579182015b8281111561038957825182559160200191906001019061036e565b50610395929150610399565b5090565b6103b391905b80821115610395576000815560010161039f565b9056fea165627a7a7230582052e923a60afa5a063423df15210cdbe1df456a26b1435aad505494dba1c087c50029",
  "source": "pragma solidity ^0.5.0;\n\ncontract TodoList {\n  uint public fundCount = 0;\n\n  struct Fund {\n    uint id;\n    string content;\n    uint tag;\n    uint money;\n  }\n\n  mapping(uint => Fund) public funds;\n\n  constructor() public {\n    createFund(\"Govenment Studies Fund -2024\",1,30);\n  }\n  function createFund(string memory _content, uint _tag,uint  _money) public {\n    fundCount ++;\n    funds[fundCount] = Fund(fundCount,_content,_tag,_money);\n    \n  }\n\n}\n\n",
  "sourcePath": "C:/DCP/contracts/TodoList.sol",
  "compiler": {
    "name": "solc",
    "version": "0.5.0+commit.1d4f565a.Emscripten.clang"
  },
  "schemaVersion": "3.0.1",
  "updatedAt": "2024-05-07T14:11:19.568Z",
  "devdoc": {
    "methods": {}
  },
  "userdoc": {
    "methods": {}
  }
}