{
  "contractName": "Token",
  "abi": [
    {
      "constant": true,
      "inputs": [
        {
          "name": "",
          "type": "uint256"
        }
      ],
      "name": "tokens",
      "outputs": [
        {
          "name": "tokenId",
          "type": "uint256"
        },
        {
          "name": "owner",
          "type": "address"
        },
        {
          "name": "price",
          "type": "uint256"
        }
      ],
      "payable": false,
      "stateMutability": "view",
      "type": "function",
      "signature": "0x4f64b2be"
    },
    {
      "constant": true,
      "inputs": [],
      "name": "owner",
      "outputs": [
        {
          "name": "",
          "type": "address"
        }
      ],
      "payable": false,
      "stateMutability": "view",
      "type": "function",
      "signature": "0x8da5cb5b"
    },
    {
      "inputs": [],
      "payable": false,
      "stateMutability": "nonpayable",
      "type": "constructor",
      "signature": "constructor"
    },
    {
      "constant": false,
      "inputs": [
        {
          "name": "_id",
          "type": "uint256"
        }
      ],
      "name": "buyToken",
      "outputs": [],
      "payable": true,
      "stateMutability": "payable",
      "type": "function",
      "signature": "0x2d296bf1"
    }
  ],
  "bytecode": "0x608060405260008054600160a060020a0319163317905534801561002257600080fd5b5060005b600a8110156100a45780600181600a811061003d57fe5b60030201556000600182600a811061005157fe5b6003020160010160006101000a815481600160a060020a030219169083600160a060020a0316021790555067016345785d8a0000600182600a8110151561009457fe5b6003020160020155600101610026565b50610331806100b46000396000f3fe6080604052600436106100565763ffffffff7c01000000000000000000000000000000000000000000000000000000006000350416632d296bf1811461005b5780634f64b2be1461007a5780638da5cb5b146100ca575b600080fd5b6100786004803603602081101561007157600080fd5b50356100fb565b005b34801561008657600080fd5b506100a46004803603602081101561009d57600080fd5b50356102c6565b60408051938452600160a060020a03909216602084015282820152519081900360600190f35b3480156100d657600080fd5b506100df6102f6565b60408051600160a060020a039092168252519081900360200190f35b600a8110801561010c575060008110155b151561017957604080517f08c379a000000000000000000000000000000000000000000000000000000000815260206004820152601060248201527f496e76616c696420746f6b656e20696400000000000000000000000000000000604482015290519081900360640190fd5b600181600a811061018657fe5b600302016002015434101515156101fe57604080517f08c379a000000000000000000000000000000000000000000000000000000000815260206004820152600d60248201527f496e76616c696420707269636500000000000000000000000000000000000000604482015290519081900360640190fd5b6000600182600a811061020d57fe5b6003020160010154600160a060020a03161461028a57604080517f08c379a000000000000000000000000000000000000000000000000000000000815260206004820152601360248201527f546f6b656e20616c7265616479206f776e656400000000000000000000000000604482015290519081900360640190fd5b33600182600a811061029857fe5b6003020160010160006101000a815481600160a060020a030219169083600160a060020a0316021790555050565b600181600a81106102d357fe5b6003020180546001820154600290920154909250600160a060020a039091169083565b600054600160a060020a03168156fea165627a7a7230582028fc5286fc7be4eb83be0e15f14abfc42426602b3abd2de4525098b3964aeed90029",
  "source": "pragma solidity ^0.5.0;\r\n\r\ncontract Token {\r\n    uint256 constant TOTAL_TOKEN = 10;\r\n    address public owner = msg.sender;\r\n\r\n    struct TokenInfo {\r\n        uint256 tokenId;\r\n        address owner;\r\n        uint256 price;\r\n    }\r\n\r\n    TokenInfo[TOTAL_TOKEN] public tokens;\r\n\r\n    constructor() public {\r\n        for (uint256 i = 0; i < TOTAL_TOKEN; i++) {\r\n            tokens[i].tokenId = i;\r\n            tokens[i].owner = address(0x0);\r\n            tokens[i].price = 1e17; // 0.1 ether\r\n        }\r\n    }\r\n\r\n    function buyToken(uint256 _id) external payable {\r\n        require(_id < TOTAL_TOKEN && _id >= 0, \"Invalid token id\");\r\n        require(msg.value >= tokens[_id].price, \"Invalid price\");\r\n        require(tokens[_id].owner == address(0x0), \"Token already owned\");\r\n        tokens[_id].owner = msg.sender;\r\n    }\r\n}\r\n",
  "sourcePath": "C:/DCP/contracts/Token.sol",
  "compiler": {
    "name": "solc",
    "version": "0.5.0+commit.1d4f565a.Emscripten.clang"
  },
  "schemaVersion": "3.0.1",
  "updatedAt": "2024-05-07T16:52:14.925Z",
  "devdoc": {
    "methods": {}
  },
  "userdoc": {
    "methods": {}
  }
}