{
  "contractName": "Token",
  "abi": [
    {
      "inputs": [],
      "payable": false,
      "stateMutability": "nonpayable",
      "type": "constructor"
    },
    {
      "constant": true,
      "inputs": [],
      "name": "owner",
      "outputs": [
        {
          "internalType": "address",
          "name": "",
          "type": "address"
        }
      ],
      "payable": false,
      "stateMutability": "view",
      "type": "function"
    },
    {
      "constant": true,
      "inputs": [
        {
          "internalType": "uint256",
          "name": "",
          "type": "uint256"
        }
      ],
      "name": "tokens",
      "outputs": [
        {
          "internalType": "uint256",
          "name": "tokenId",
          "type": "uint256"
        },
        {
          "internalType": "address",
          "name": "owner",
          "type": "address"
        },
        {
          "internalType": "uint256",
          "name": "price",
          "type": "uint256"
        }
      ],
      "payable": false,
      "stateMutability": "view",
      "type": "function"
    },
    {
      "constant": false,
      "inputs": [
        {
          "internalType": "address",
          "name": "_owner",
          "type": "address"
        },
        {
          "internalType": "uint256",
          "name": "_price",
          "type": "uint256"
        }
      ],
      "name": "createToken",
      "outputs": [],
      "payable": false,
      "stateMutability": "nonpayable",
      "type": "function"
    },
    {
      "constant": false,
      "inputs": [],
      "name": "getAvailableTokenId",
      "outputs": [
        {
          "internalType": "uint256",
          "name": "",
          "type": "uint256"
        }
      ],
      "payable": false,
      "stateMutability": "nonpayable",
      "type": "function"
    },
    {
      "constant": false,
      "inputs": [
        {
          "internalType": "uint256",
          "name": "_id",
          "type": "uint256"
        }
      ],
      "name": "buyToken",
      "outputs": [],
      "payable": true,
      "stateMutability": "payable",
      "type": "function"
    }
  ],
  "bytecode": "0x6080604052600080546001600160a01b0319163317905534801561002257600080fd5b5060005b60648110156100a257806001826064811061003d57fe5b600302015560006001826064811061005157fe5b6003020160010160006101000a8154816001600160a01b0302191690836001600160a01b0316021790555067016345785d8a00006001826064811061009257fe5b6003020160020155600101610026565b5061046b806100b26000396000f3fe60806040526004361061004a5760003560e01c80630b759cf31461004f5780632d296bf1146100765780634f64b2be146100955780636a10d4d6146100e55780638da5cb5b1461011e575b600080fd5b34801561005b57600080fd5b5061006461014f565b60408051918252519081900360200190f35b6100936004803603602081101561008c57600080fd5b50356101d7565b005b3480156100a157600080fd5b506100bf600480360360208110156100b857600080fd5b5035610326565b604080519384526001600160a01b03909216602084015282820152519081900360600190f35b3480156100f157600080fd5b506100936004803603604081101561010857600080fd5b506001600160a01b038135169060200135610356565b34801561012a57600080fd5b50610133610402565b604080516001600160a01b039092168252519081900360200190f35b6000805b60648110156101915760006001826064811061016b57fe5b60030201600101546001600160a01b031614156101895790506101d4565b600101610153565b506040805162461bcd60e51b815260206004820152601260248201527127379030bb30b4b630b13632903a37b5b2b760711b604482015290519081900360640190fd5b90565b6064811080156101e5575060015b610229576040805162461bcd60e51b815260206004820152601060248201526f125b9d985b1a59081d1bdad95b881a5960821b604482015290519081900360640190fd5b6001816064811061023657fe5b6003020160020154341015610282576040805162461bcd60e51b815260206004820152600d60248201526c496e76616c696420707269636560981b604482015290519081900360640190fd5b60006001826064811061029157fe5b60030201600101546001600160a01b0316146102ea576040805162461bcd60e51b8152602060048201526013602482015272151bdad95b88185b1c9958591e481bdddb9959606a1b604482015290519081900360640190fd5b33600182606481106102f857fe5b6003020160010160006101000a8154816001600160a01b0302191690836001600160a01b0316021790555050565b6001816064811061033357fe5b60030201805460018201546002909201549092506001600160a01b039091169083565b6000546001600160a01b0316331461039f5760405162461bcd60e51b81526004018080602001828103825260258152602001806104126025913960400191505060405180910390fd5b60006103a961014f565b905082600182606481106103b957fe5b6003020160010160006101000a8154816001600160a01b0302191690836001600160a01b0316021790555081600182606481106103f257fe5b6003020160020181905550505050565b6000546001600160a01b03168156fe4f6e6c7920636f6e7472616374206f776e65722063616e2063726561746520746f6b656e73a265627a7a723158204df23adaf58ec03c0a8b28561093eb2012140572e5209aab309a409b4af7602064736f6c63430005100032",
  "source": "pragma solidity ^0.5.0;\n\ncontract Token {\n    uint256 constant TOTAL_TOKEN = 100;\n    address public owner = msg.sender;\n\n    struct TokenInfo {\n        uint256 tokenId;\n        address owner;\n        uint256 price;\n    }\n\n    TokenInfo[TOTAL_TOKEN] public tokens;\n\n    constructor() public {\n        for (uint256 i = 0; i < TOTAL_TOKEN; i++) {\n            tokens[i].tokenId = i;\n            tokens[i].owner = address(0x0);\n            tokens[i].price = 1e17; // 0.1 ether\n        }\n    }\n\n    function createToken(address _owner, uint256 _price) public {\n        require(msg.sender == owner, \"Only contract owner can create tokens\");\n        uint256 tokenId = getAvailableTokenId();\n        tokens[tokenId].owner = _owner;\n        tokens[tokenId].price = _price;\n    }\n\n    function getAvailableTokenId()  public  returns (uint256) {\n        for (uint256 i = 0; i < TOTAL_TOKEN; i++) {\n            if (tokens[i].owner == address(0x0)) {\n                return i;\n            }\n        }\n        revert(\"No available token\");\n    }\n\n    \n\n    function buyToken(uint256 _id) external payable {\n        require(_id < TOTAL_TOKEN && _id >= 0, \"Invalid token id\");\n        require(msg.value >= tokens[_id].price, \"Invalid price\");\n        require(tokens[_id].owner == address(0x0), \"Token already owned\");\n        tokens[_id].owner = msg.sender;\n    }\n}\n",
  "sourcePath": "D:\\clg\\sem 6\\digital currency programming\\case study\\Government-Fund-Allocation-Tracking-master\\Government-Fund-Allocation-Tracking-master\\contracts\\Token.sol",
  "compiler": {
    "name": "solc",
    "version": "0.5.16+commit.9c3226ce.Emscripten.clang"
  },
  "schemaVersion": "3.4.16",
  "updatedAt": "2024-05-08T03:11:48.130Z",
  "networkType": "ethereum",
  "devdoc": {
    "methods": {}
  },
  "userdoc": {
    "methods": {}
  }
}