{
  "contractName": "User",
  "abi": [
    {
      "constant": true,
      "inputs": [],
      "name": "authority",
      "outputs": [
        {
          "name": "",
          "type": "address"
        }
      ],
      "payable": false,
      "stateMutability": "view",
      "type": "function"
    }
  ],
  "bytecode": "0x608060405234801561001057600080fd5b5060c68061001f6000396000f3fe608060405260043610603e5763ffffffff7c0100000000000000000000000000000000000000000000000000000000600035041663bf7e214f81146043575b600080fd5b348015604e57600080fd5b506055607e565b6040805173ffffffffffffffffffffffffffffffffffffffff9092168252519081900360200190f35b60005473ffffffffffffffffffffffffffffffffffffffff168156fea165627a7a72305820ee70508620127437acc0d8ed86747a636c4c30a30be1328b1248cef2efa89a800029",
  "source": "pragma solidity ^0.5.0;\r\nimport \"./Government.sol\";\r\ncontract User {\r\n    address public authority;\r\n\r\n    // constructor(address _authority) public {\r\n    //     authority = _authority;\r\n    // }\r\n\r\n    // function requestFund(uint amount) public view returns (bool) {\r\n    //     return Authority(authority).verifyRequest(amount);\r\n    // }\r\n}\r\n",
  "sourcePath": "C:/DCP/contracts/User.sol",
  "compiler": {
    "name": "solc",
    "version": "0.5.0+commit.1d4f565a.Emscripten.clang"
  },
  "schemaVersion": "3.0.1",
  "updatedAt": "2024-05-07T15:32:23.787Z",
  "devdoc": {
    "methods": {}
  },
  "userdoc": {
    "methods": {}
  }
}